:100000000C945D000C9485000C9485000C94850084
:100010000C9485000C9485000C9485000C9485004C
:100020000C9485000C9485000C9485000C9485003C
:100030000C9485000C9485000C9485000C9485002C
:100040000C94CB0A0C9485000C94990A0C94730AB6
:100050000C9485000C9485000C9485000C9485000C
:100060000C9485000C94850000000008000201003B
:100070000003040700000000000000000000000072
:10008000250028002B0000000000240027002A0083
:10009000040404040404040402020202020203032E
:1000A0000303030301020408102040800102040836
:1000B0001020010204081020150B11241FBECFEFE1
:1000C000D8E0DEBFCDBF11E0A0E0B1E0EAE9FCE19D
:1000D00002C005900D92A03AB107D9F724E0A0EA3A
:1000E000B1E001C01D92A13DB207E1F710E0CDE5FE
:1000F000D0E004C02197FE010E94360ECC35D10716
:10010000C9F70E945D0B0C944B0E0C94000090E01C
:10011000FC01EC55FF4F249180579F4FFC018491C7
:10012000882399F090E0880F991FFC01EA57FF4F50
:10013000A591B491FC01E458FF4F859194918FB73C
:10014000F894EC91E22BEC938FBF0895AF92BF929D
:10015000CF92DF92EF92FF920F931F93CF93DF9393
:100160006C017B018B01040F151FEB015E01AE18C2
:10017000BF08C017D10759F06991D601ED91FC91E4
:100180000190F081E02DC6010995892B79F7C50111
:10019000DF91CF911F910F91FF90EF90DF90CF9063
:1001A000BF90AF900895FC01538D448D252F30E012
:1001B000842F90E0821B930B541710F0CF96089574
:1001C00001970895FC01918D828D981761F0A28DA1
:1001D000AE0FBF2FB11D5D968C91928D9F5F9F7367
:1001E000928F90E008958FEF9FEF0895FC01918D1D
:1001F000828D981731F0828DE80FF11D858D90E08A
:1002000008958FEF9FEF0895FC01918D228D892F26
:1002100090E0805C9F4F821B91098F73992708950E
:1002200089EE93E00E94040121E0892B09F420E08B
:10023000822F089580E090E0892B29F00E94100120
:1002400081110C9400000895FC01A48DA80FB92F12
:10025000B11DA35ABF4F2C91848D90E001968F73EE
:100260009927848FA689B7892C93A089B1898C910D
:10027000837080648C93938D848D981306C002885C
:10028000F389E02D80818F7D80830895EF92FF9226
:100290000F931F93CF93DF93EC0181E0888F9B8DA9
:1002A0008C8D98131AC0E889F989808185FF15C063
:1002B0009FB7F894EE89FF896083E889F989808186
:1002C0008370806480839FBF81E090E0DF91CF9155
:1002D0001F910F91FF90EF900895F62E0B8D10E077
:1002E0000F5F1F4F0F731127E02E8C8D8E110CC0E6
:1002F0000FB607FCFACFE889F989808185FFF5CF31
:10030000CE010E942401F1CFEB8DEC0FFD2FF11DEA
:10031000E35AFF4FF0829FB7F8940B8FEA89FB896D
:1003200080818062CFCFCF93DF93EC01888D8823CB
:10033000B9F0AA89BB89E889F9898C9185FD03C048
:10034000808186FD0DC00FB607FCF7CF8C9185FF2D
:10035000F2CF808185FFEDCFCE010E942401E9CF4D
:10036000DF91CF91089590E0FC01E859FF4F24916F
:10037000FC01EC55FF4F3491FC01E057FF4FE49135
:10038000EE23C9F0222339F0233001F1A8F4213003
:1003900019F1223029F1F0E0EE0FFF1FE458FF4F72
:1003A000A591B4918FB7F894EC91611126C0309566
:1003B0003E233C938FBF08952730A9F02830C9F021
:1003C000243049F7809180008F7D03C080918000A8
:1003D0008F7780938000DFCF84B58F7784BDDBCFAC
:1003E00084B58F7DFBCF8091B0008F778093B00074
:1003F000D2CF8091B0008F7DF9CF3E2BDACF2FB7CF
:10040000F8946091E0017091E1018091E201909196
:10041000E3012FBF08958FB7F8948091D5018FBF66
:10042000089561E0FC0184810E94B3018091D401B0
:1004300081111092D40108958EBD00000DB407FE05
:10044000FDCF8EB508958FEF0C941C020F931F9370
:10045000CF93DF93EC010E94FF018B010E942302E6
:100460008F3F69F00E94FF01601B710B6C177D07C5
:10047000A8F380E0DF91CF911F910F91089581E063
:10048000F9CF8CBD9DBD0895CF93DF93EC01809192
:10049000D401811109C081E08093D4018091860448
:1004A000909187040E94410260E08C81DF91CF919E
:1004B0000C94B3018F929F92AF92BF92FF920F93D1
:1004C0001F93CF93DF93EC01F62E49015A018E81E1
:1004D000882389F08F8198859C012F5F3F4F388753
:1004E0002F838230924018F40E942302F3CFCE0172
:1004F0000E9411021E82CE010E9444028CE291E011
:100500000E9426028F2D80640E941C0208E110E0E8
:10051000D501C401002E04C0B695A795979587957F
:100520000A94D2F70E941C0208501109083F8FEF6D
:10053000180771F785E9FF2021F028E087E8F2121B
:100540008FEF0E941C0210E00E9423028A8787FF1F
:1005500004C01F3F11F01F5FF7CFDF91CF911F91B4
:100560000F91FF90BF90AF909F908F900895CF9282
:10057000DF92EF92FF920F93CF93DF93EC0169012B
:1005800082E1411551056105710599F08B85833034
:1005900039F089E0440F551F661F771F8A95D1F700
:1005A0009A01AB0168E1CE010E945A02882319F03A
:1005B00084E08D832DC08EEF0E941C0276018EEFA9
:1005C000D81AF70181917F010E941C02EC14FD04EE
:1005D000C1F78FEF0E941C028FEF0E941C020E9445
:1005E00023028A878F71853071F4011116C0CE0104
:1005F0000E94110281E0DF91CF910F91FF90EF9067
:10060000DF90CF90089581E18D83CE010E94110289
:10061000CE010E94110280E0EECF88E592E00E94B8
:100620002602811102C085E1C4CF20E030E0A9019B
:100630006DE0CE010E945A02882311F084E1B9CF07
:100640000E9423028111FACFD2CF0F934091D7019C
:100650005091D8016091D9017091DA01411551058D
:100660006105710599F0082F27EE31E08091E703CD
:100670009091E8030E94B702882349F01092D701B5
:100680001092D8011092D9011092DA0181E00F91F5
:1006900008950F93CF93C82F8091D601811105C083
:1006A000C1E08C2FCF910F9108954091000150919E
:1006B000010160910201709103010C2F27EE31E0DE
:1006C0008091E7039091E8030E94B702811102C074
:1006D000C0E0E7CFCC2321F381E00E9425038823EB
:1006E000B9F31092D601DDCF9F92AF92BF92CF9215
:1006F000DF92EF92FF920F931F93CF93DF936B01E3
:100700007C01942E8091000190910101A091020141
:10071000B09103018C159D05AE05BF0509F494C089
:1007200081E00E944903882389F1C091E703D091B9
:10073000E8038E81882371F088819981AA81BB8129
:10074000C816D906EA06FB0629F48F819885892BFD
:1007500009F443C0C882D982EA82FB828B85A70153
:100760009601833039F099E0220F331F441F551F43
:100770009A95D1F761E1CE010E945A02882391F047
:1007800083E08D83CE010E94110280E0DF91CF9142
:100790001F910F91FF90EF90DF90CF90BF90AF909F
:1007A0009F9008950E94FF018B010E9423028A8777
:1007B0008F3F69F40E94FF01601B710B6D32714025
:1007C000A0F38FE08D83CE010E941102DBCF8E3F1C
:1007D00069F518861F8281E08E8307EE11E087EEAF
:1007E000A82E83E0B82E0E942302F80181938F0186
:1007F000AE16BF06C1F78F8198859E5F98878F835D
:100800002985222319F081159240B0F08E8188232A
:1008100099F08F8198859C012F5F3F4F38872F83F8
:100820008230924028F40E942302F3CF8DE0CACF99
:10083000CE010E9411021E82C0920001D0920101DD
:10084000E0920201F09203014091D60149294093C0
:10085000D60181E09BCF8F929F92AF92BF92CF92B1
:10086000DF92EF92FF92CF9328E834E03093E803D1
:100870002093E703882309F46DC040E060E070E056
:10088000CB010E94740381110BC080E0CF91FF90D7
:10089000EF90DF90CF90BF90AF909F908F90089592
:1008A0008091A5038F7789F78091B1039091B2036E
:1008B000A091B303B091B40384369105A105B105AD
:1008C00020F3C090AD03D090AE03E090AF03F09062
:1008D000B003C114D104E104F104B9F240E0C7014E
:1008E000B6010E947403882381F28091F2019091F5
:1008F000F3018115924049F6A091F701AA2329F24C
:100900006091F5017091F6016115710509F4BDCF93
:100910002091F401222309F4B8CFA093A6042093D8
:10092000980490E080E030E0E1E0F0E0C82FAF0113
:10093000082E02C0440F551F0A94E2F7241735070A
:1009400069F041E0480F01968930910579F74093AD
:10095000A1049BCFC12CD12C7601C0CF8093A104E0
:100960002091FD013091FE0150E040E0211531055C
:1009700041F420910B0230910C0240910D025091F4
:100980000E022093990430939A0440939B04509351
:100990009C0446015701860E971EA11CB11C809233
:1009A000A7049092A804A092A904B092AA04E0918E
:1009B000F801F091F901F093AD04E093AC04B0E0DC
:1009C0000E942B0EDC01CB01880D991DAA1DBB1DB9
:1009D0008093AE049093AF04A093B004B093B1049D
:1009E00025E0EE0FFF1F2A95E1F7E150FE4FEF2FB4
:1009F000FF27E6958E0F9F1FA11DB11D8093A204B6
:100A00009093A304A093A404B093A5048090FA014A
:100A10009090FB01B12CA12C8114910441F48090A1
:100A2000070290900802A0900902B0900A02C81A2A
:100A3000D90AEA0AFB0AC80CD91CEA1CFB1C04C030
:100A4000F694E794D794C794CA95D2F7C0929D04C0
:100A5000D0929E04E0929F04F092A00485EFC81605
:100A60008FE0D806E104F10428F48CE08093AB0415
:100A700081E00CCF80E125EFC2162FEFD206E10412
:100A8000F104A0F38091130290911402A091150239
:100A9000B09116028093AE049093AF04A093B0047B
:100AA000B093B10480E2E2CF4F925F926F927F9257
:100AB0008F929F92AF92BF92CF92DF92EF92FF926E
:100AC0000F931F93CF93DF93EC01423051056105E3
:100AD000710590F480E0DF91CF911F910F91FF900D
:100AE000EF90DF90CF90BF90AF909F908F907F90CE
:100AF0006F905F904F90089589859A85AB85BC85EE
:100B00000196A11DB11D84179507A607B70710F31D
:100B1000CB88DC88ED88FE888F89803109F042C05F
:100B2000BB27A72F962F852F480159012A013B018A
:100B3000C80ED91EEA1EFB1E809100019091010192
:100B4000A0910201B0910301C816D906EA06FB067E
:100B500099F58F898031C1F5B301A2015527662728
:100B60007727440F551F49515E4FFA0191828082C9
:100B70008091D60181608093D6018A89823080F08D
:100B80008D819E81AF81B8858C0D9D1DAE1DBF1DD1
:100B90008093D7019093D801A093D901B093DA0143
:100BA00081E099CFDB01CA01E7E0B695A79597955B
:100BB0008795EA95D1F7B8CF40E0C701B6010E940A
:100BC00074038111C6CF86CFB301A2014F77552799
:100BD00066277727440F551F440F551F49515E4F15
:100BE000FA0180829182A282B382C2CF8F929F92B9
:100BF000AF92BF92CF92DF92EF92FF920F931F932B
:100C0000CF93DF93FC0181859285A385B4850196FE
:100C1000A11DB11D84179507A607B70770F480E0E2
:100C2000DF91CF911F910F91FF90EF90DF90CF90C8
:100C3000BF90AF909F908F90089583889488A588E7
:100C4000B6888789803189F5BB27A72F962F852FF6
:100C5000E9016A017B018F01BC01CD01680D791D9D
:100C60008A1D9B1D8090000190900101A0900201BF
:100C7000B090030186169706A806B90601F5F8019B
:100C80008789803111F5DD24EE24FF24F601EE0F73
:100C9000FF1FE951FE4F80819181B0E0A0E0888381
:100CA0009983AA83BB8381E0BBCFDB01CA01C7E084
:100CB000B695A79597958795CA95D1F7C9CF40E086
:100CC0000E9474038111DBCFAACFE894C7F8DD241A
:100CD000EE24FF24F601EE0FFF1FEE0FFF1FE95178
:100CE000FE4F80819181A281B381BF70D8CF8F9256
:100CF0009F92AF92BF92CF92DF92EF92FF920F93AB
:100D00001F93CF93DF93EC018D8181110EC080E0A2
:100D1000DF91CF911F910F91FF90EF90DF90CF90D7
:100D2000BF90AF909F908F9008950B891C892D895B
:100D30003E89041715072607370748F34A015B0168
:100D4000823031F48A869B86AC86BD8681E0E0CF16
:100D500081149104A104B10449F41E821F821886F3
:100D600019861A861B861C861D86F0CF0A851B8570
:100D70002C853D85EB8DFC8D858590E00996B9012C
:100D8000A8014150510961097109082E04C07695E6
:100D90006795579547950A94D2F775016401E1E08C
:100DA000CE1AD108E108F10804C0F694E794D7946C
:100DB000C7948A95D2F7C416D506E606F70620F042
:100DC000012B022B032B11F58F89988DA98DBA8DDC
:100DD0008E839F83A887B9878E010A5F1F4FC11436
:100DE000D104E104F10409F4ADCF4E815F8168853F
:100DF000798598018B8D9C8D0E94F60591E0C91A2A
:100E0000D108E108F1088111EACF81CFC41AD50ACF
:100E1000E60AF70AE1CF3F924F925F926F927F927C
:100E20008F929F92AF92BF92CF92DF92EF92FF92FA
:100E30000F931F93CF93DF93CDB7DEB72C970FB6E9
:100E4000F894DEBF0FBECDBF5C01DC015B968D90D8
:100E50009C905C9716964D905D906D907C90199744
:100E6000411451046104710409F468C0BFEF4B1AC6
:100E70005B0A6B0A7B0A312CF40181859285A3857C
:100E8000B4859C01AD012F5F3F4F4F4F5F4F2987C6
:100E90003A874B875C87730162011D821E821F8225
:100EA0001886F40181859285A385B4852D813E81C4
:100EB0004F815885281739074A075B0708F056C045
:100EC00089859A85AB85BC858C159D05AE05BF05CA
:100ED00050F482E0C82ED12CE12CF12C92E0492E66
:100EE000512C612C712C9E012F5F3F4FB701A60141
:100EF000C4010E94F6058823C9F189819A81AB81DA
:100F0000BC81892B8A2B8B2B09F1260137019FEF9E
:100F1000491A590A690A790A2D813E814F815885FB
:100F20002F5F3F4F4F4F5F4F2D833E834F83588737
:100F30003FEFC31AD30AE30AF30AB3CFF4014080A8
:100F40005180628073803324339496CFC414D504C7
:100F5000E604F70409F70FEF1FEF2FEF3FE0B701AB
:100F6000A601C4010E945405811119C080E02C968D
:100F70000FB6F894DEBF0FBECDBFDF91CF911F91AA
:100F80000F91FF90EF90DF90CF90BF90AF909F9028
:100F90008F907F906F905F904F903F900895D50114
:100FA00016964D915D916D917C9119974115510562
:100FB0006105710539F097018601C4010E9454054D
:100FC0008823A1F2D5011696CD92DD92ED92FC9286
:100FD0001997332051F0D701C6010196A11DB11D0B
:100FE000F40180839183A283B383F5018789908D77
:100FF000A18DB28D892B8A2B8B2B39F48481C78AE2
:10100000D08EE18EF28E80688483F50184818062C7
:10101000848381E0ACCF1F93CF93DF93EC01162F35
:101020008C8187FF2AC06E857F858889998941E0F8
:101030000E947403882361F1EA8980E2E89FF0014D
:101040001124E951FE4F309719F18D81823040F41F
:101050008B899C89AD89BE89848F958FA68FB78F28
:101060008F89988D938F828F8F89988DA98DBA8D56
:10107000B58BA48B8C818F778C83111103C08C81ED
:101080008F7E8C83812FDF91CF911F910C94490328
:1010900080E0DF91CF911F910895FF920F931F93EE
:1010A000CF93DF93EC018D81813041F090E080E0BF
:1010B000DF91CF911F910F91FF9008958C8181FF57
:1010C000F5CF82FD1EC00091E7031091E803C8012F
:1010D0000E9444020E942302F82EC8010E941102BD
:1010E0008FEFF812E3CF8C8185FF1EC08D8188239E
:1010F00021F060E0CE010E940B088C818F7D8C83F3
:10110000D5CF4B895C896D897E898A859B85AC8525
:10111000BD8584179507A607B707A9F2CE010E94DF
:1011200077068111D0CFC2CF4091D7015091D8011D
:101130006091D9017091DA01452B462B472B21F0A4
:1011400080E00E942503B2CF80618C832A853B8595
:10115000317080E092E0821B930BAACF9F92AF92F6
:10116000BF92CF92DF92EF92FF920F931F93CF9394
:10117000DF9300D000D01F92CDB7DEB78C016D8316
:10118000DC0115968C911597813009F0B9C0149641
:101190008C9181FFB5C082FD9FC0D8015B96ED9117
:1011A000FC915C971A96AD90BD90CD90DC901D9708
:1011B00094809A94B601A50189E076956795579534
:1011C00047958A95D1F79422B1E0BB22992009F482
:1011D0009FC0D8015B96ED91FC915C971696CD90DF
:1011E000DD90ED90FC901997B2E0CB1AD108E108A0
:1011F000F108858504C0CC0CDD1CEE1CFF1C8A9513
:10120000D2F74685578560897189C40ED51EE61EC2
:10121000F71EC90CD11CE11CF11CA114B10409F08A
:101220000AC1F8014285538564857585838994894F
:10123000A589B689481759076A077B0708F4FBC0D8
:1012400081E00E944903882309F45AC0C09200013A
:10125000D0920101E0920201F09203018091D60147
:1012600081608093D601F501E951FE4F8D81808325
:10127000F80182859385A485B5850196A11DB11DD0
:1012800082879387A487B58743895489658976893E
:10129000481759076A077B0738F42481838B948B9E
:1012A000A58BB68B20682483D80114968C9183FD7E
:1012B0009FC081E090E00F900F900F900F900F90E3
:1012C000DF91CF911F910F91FF90EF90DF90CF9022
:1012D000BF90AF909F900895F80143895489658924
:1012E000768982859385A485B585481759076A074D
:1012F0007B0709F452CFC8010E94770681114DCFB8
:1013000081E090E0D80113969C938E93129749C088
:10131000D80116964D915D916D917C911997A1140C
:10132000B10409F071C0411551056105710589F5D8
:1013300057968D919D910D90BC91A02D0097A10580
:10134000B10509F04FC0C8010E940B078823C1F204
:10135000D8015B96ED91FC915C971696CD90DD904F
:10136000ED90FC901997B2E0CB1AD108E108F10892
:10137000858504C0CC0CDD1CEE1CFF1C8A95D2F7C1
:101380004685578560897189C40ED51EE61EF71EF5
:1013900048CF9E012F5F3F4FCF010E94F60581117C
:1013A00003C090E080E087CF89819A81AB81BC81C6
:1013B000F801238D348DF901278948EF5FEF60E054
:1013C00070E0203121F048EF5FEF6FEF7FE084178E
:1013D0009507A607B70730F0C8010E940B078111D7
:1013E000F8CE8ECFF80186839783A087B187F1CEA0
:1013F000F8018581882309F483CF61E0C8010E9448
:101400000B08811156CF7CCF6A017B01B2E0CB1A69
:10141000D108E108F108858504C0CC0CDD1CEE1C68
:10142000FF1C8A95D2F74685578560897189C40E5D
:10143000D51EE61EF71E41E0C701B6010E947403E7
:10144000811111CF5DCF0895FC0101900020E9F7D3
:101450003197AF01481B590BBC0189EE93E00C9406
:10146000A600603161F49091D301E92FF0E0EF55CF
:10147000FE4F80839F5F9093D30181E00895613197
:1014800049F48091A0018F5F8093A001813019F011
:101490008230A1F0089582E291E00E94240A81EA5C
:1014A00091E00E94240AE1EAF1E082E3DF011D926B
:1014B0008A95E9F71092D30182E0089585E391E0DF
:1014C0000E94240A81EA91E00E94240AE1EAF1E004
:1014D00082E3DF011D928A95E9F71092D301109201
:1014E000A00183E008951F920F920FB60F9211246E
:1014F0002F933F934F935F936F937F938F939F931C
:10150000AF93BF93EF93FF9389EE93E00E94240182
:10151000FF91EF91BF91AF919F918F917F916F91CB
:101520005F914F913F912F910F900FBE0F901F90A1
:1015300018951F920F920FB60F9211242F938F932D
:101540009F93EF93FF93E091F903F091FA03808169
:10155000E091FF03F091000482FD1BC09081809117
:1015600002048F5F8F7320910304821741F0E09192
:101570000204F0E0E751FC4F958F80930204FF9145
:10158000EF919F918F912F910F900FBE0F901F9011
:1015900018958081F4CF1F920F920FB60F921124ED
:1015A0002F933F938F939F93AF93BF938091E001CD
:1015B0009091E101A091E201B091E3013091DF014E
:1015C00023E0230F2D3758F50196A11DB11D20935F
:1015D000DF018093E0019093E101A093E201B093D9
:1015E000E3018091DB019091DC01A091DD01B091DC
:1015F000DE010196A11DB11D8093DB019093DC01FA
:10160000A093DD01B093DE01BF91AF919F918F91C7
:101610003F912F910F900FBE0F901F90189526E8C5
:10162000230F0296A11DB11DD2CFE9EEF3E0138284
:10163000128288EE93E0A0E0B0E084839583A683D5
:10164000B78388E091E09183808385EC90E0958773
:10165000848784EC90E09787868780EC90E0918B7C
:10166000808B81EC90E0938B828B82EC90E0958B69
:10167000848B86EC90E0978B868B118E128E138E66
:10168000148EE6E8F4E080E580831182E8E8F4E077
:10169000158216821186138682E090E0A0E0B0E009
:1016A00084879587A687B78713A215A614A68AE113
:1016B00091E093A782A717A60895CF93DF93CDB7A4
:1016C000DEB7A5970FB6F894DEBF0FBECDBF7894F6
:1016D00084B5826084BD84B5816084BD85B5826037
:1016E00085BD85B5816085BD80916E0081608093E8
:1016F0006E00109281008091810082608093810051
:101700008091810081608093810080918000816060
:10171000809380008091B10084608093B1008091BB
:10172000B00081608093B00080917A0084608093E3
:101730007A0080917A00826080937A0080917A00AA
:10174000816080937A0080917A00806880937A002B
:101750001092C100E091F903F091FA0382E08083D6
:10176000E091F503F091F6031082E091F703F09118
:10177000F8038FEC808310920104E091FD03F09157
:10178000FE0386E08083E091FB03F091FC038081FF
:1017900080618083E091FB03F091FC03808188608D
:1017A0008083E091FB03F091FC038081806880835B
:1017B000E091FB03F091FC0380818F7D808384E4C2
:1017C00091E00E94240A8091B704882341F061E0EF
:1017D00082EB94E00E940B0881111092B7041092E2
:1017E00093041092910410928E0410928D0484E060
:1017F00080938C040E94FF018B0180918C040E94D5
:10180000870061E080918C040E94B301FFB6F894D8
:101810008091E401811124C0EAE9F0E08491EEEACC
:10182000F0E09491E82FF0E0EE0FFF1FEA57FF4F32
:10183000A591B491EC91E92321F461E08AE00E9442
:10184000B3018AE00E9487008CB580618CBD8CB5A5
:1018500080648CBD8DE00E9487008BE00E94870031
:101860008091E4018F5F8093E401FFBE82E5809365
:1018700086041092870480918604909187040E94C8
:1018800041027AE0F72E8FEF0E941C02FA94F110C9
:10189000FACF88E894E00E94440220E030E0A901F9
:1018A00060E088E894E00E945A02F82E8093920447
:1018B00021E0821799F00E94FF01601B710B613DCE
:1018C000774058F381E080938D0488E894E00E948B
:1018D000110288E791E00E94240AFFCF2AEA31E052
:1018E00040E050E068E088E894E00E945A0282FFFD
:1018F0002AC0F092930480919304812C912C54017E
:10190000823029F4812C912CA12C50E4B52E20E0BA
:1019100030E0A90167E388E894E00E945A02A5013B
:10192000940169E288E894E00E945A02809392044C
:101930008823D1F00E94FF01601B710B613D77404D
:1019400030F388E0C0CF64E0F62E0E94230280933B
:101950009204FA94F110F9CF8A3A11F082E0B3CFF1
:1019600082E080939304C7CF809193048230D1F4B6
:1019700020E030E0A9016AE388E894E00E945A027E
:10198000882311F086E09FCF0E942302807C803C58
:1019900019F483E0809393040E9423020E9423029F
:1019A0000E94230288E894E00E94110280E580935F
:1019B00086041092870481E00E942B04882309F496
:1019C0007DC08091B704811184CF8091AB048031B8
:1019D00009F07BC082E08093B7041092C904109292
:1019E000CA041092CB041092CC048091AC04909164
:1019F000AD04B0E0A0E045E0880F991FAA1FBB1F0F
:101A00004A95D1F78093C5049093C604A093C70468
:101A1000B093C80484E994E09093CE048093CD04FD
:101A200081E08093B6041092B8041092B904109229
:101A3000BA041092BB041092BC041092BD04109220
:101A4000BE041092BF041092C0041092C104109200
:101A5000C2041092C3041092C40488E591E00E946D
:101A6000240A8AE0882E912CA12CB12C90E0E92E3A
:101A700090E0F92E20E1D22E89EE93E00E9404013D
:101A8000892B09F4BAC089EE93E00E94E200182F76
:101A90008D3009F47AC0813309F4A8C0612F89EE32
:101AA00093E00E9446016091E501812F0E94310A76
:101AB0008091E6018F5F8093E601DECF80E00E9497
:101AC0002B04882309F405CF7CCF803209F001CFA5
:101AD00083E08093B7048091AE049091AF04A0910D
:101AE000B004B091B1048093C9049093CA04A09348
:101AF000CB04B093CC048AA39BA3ACA3BDA3812C3D
:101B0000912C5401C12C32E0D32EE12CF12C4AA1AE
:101B10005BA16CA17DA19E012E5D3F4F84E994E005
:101B20000E94F605882309F4D4CE8091A104A70170
:101B3000960104C0220F331F441F551F8A95D2F708
:101B4000DA01C901880E991EAA1EBB1E4AA15BA11B
:101B50006CA17DA18091AB04803191F088EF9FEF63
:101B6000AFEFBFE0481759076A077B0780F2809202
:101B7000C5049092C604A092C704B092C8044ACF8C
:101B800088EF9FEFA0E0B0E0EDCF6AE089EE93E050
:101B90000E94460161E180E00E94310A282F30E076
:101BA00050E040E019A28E010F5D1F4FCA01B9013C
:101BB000A50194010E94090E605DF80162938F01F6
:101BC000211531054105510589F7309761F00190E4
:101BD0000020E9F73197AF01401B510BB80189EEA6
:101BE00093E00E94A6001092E60146CF8FE891E0B4
:101BF0000E94240AD092E50151CFE114F10409F4C6
:101C00003BCF0E941001882309F436CF0E940000C8
:101C100033CFA1E21A2EAA1BBB1BFD010DC0AA1FC8
:101C2000BB1FEE1FFF1FA217B307E407F50720F045
:101C3000A21BB30BE40BF50B661F771F881F991FC0
:101C40001A9469F760957095809590959B01AC0109
:101C5000BD01CF0108950E943C0EA59F900DB49F39
:101C6000900DA49F800D911D11240895EE0FFF1F6C
:101C70000590F491E02D0994A29FB001B39FC0019B
:101C8000A39F700D811D1124911DB29F700D811DA8
:0A1C90001124911D0895F894FFCF70
:101C9A00FFFFFFFF000000004601A600D3009301EA
:101CAA000401E200F60000000000AE08A6004D089C
:101CBA00230A656E746572656420757365726E6158
:101CCA006D653A0A00656E746572656420636F64B7
:101CDA00653A0A00496E697469616C697A696E6766
:101CEA002053442E2E2E0A004361726420696E69C5
:101CFA007469616C697A6174696F6E207375636364
:101D0A0065737366756C0A00496E697469616C69FA
:101D1A007A6174696F6E206661696C65640A004154
:101D2A006464696E67206E657720757365720A0050
:00000001FF
